:060000000A128A11142906
:10000800F000030EF1000B1910200C185B20710E84
:100018008300F00E700E090003138312FE30810076
:100028000B11880124182828A4182C2824193028F2
:10003800A4193428241A3828A41A3C28241B402838
:1000480027088700881444282808870008144728A8
:100058002908870088154A282A08870008154D2886
:100068002B088700881650282C0887000816532864
:100078002D088700881756282E0887000817592842
:100088000130A40608000330A40608000630A406C0
:1000980008000C30A40608001830A4060800303008
:1000A800A40608006030A4060800A4010800031391
:1000B8008312EE308E0085308F000C10A003A10350
:0400C800A203080087
:100200008A010A140F3982073F3406345B344F34B5
:1002100066346D347D3407347F34673477347C340E
:1002200039345E34793471349F22B322BA22C92220
:100230000A30A0001430A1001E30A200D8220313FF
:10024000831286182921CE210F22BB21431C492964
:100250004D2986182929C30A080006192D29C20A22
:1002600041214208080086193329C2033921420876
:1002700008000930420203193E2908001430C20068
:100280000800153042020319462908000A30C2004E
:100290000800C318552951292129C31859295D2956
:1002A00021294319A329612921294319AB297B2934
:1002B00021294319AB298F2921294319AB29672902
:1002C0002129091089100911AD01AE012129450824
:1002D000C20009148910091106192D21861933212C
:1002E0004208C500BA00CE2135080021AD0036080D
:1002F0000021AE0021294608C20009108914091105
:1003000006192D21861933214208C600BA00CE21D4
:1003100035080021AD0036080021AE00212947082C
:10032000C20009108910091506192D2186193321DB
:100330004208C700BA00CE2135080021AD003608BA
:100340000021AE0021290914891409150619AD21CF
:100350008619B7212129C30121290619AD29C30115
:100360004508A0004608A1004708A20021298619D7
:10037000B729C301212930080021A7002F08002137
:10038000A80032080021A90031080021AA00340881
:100390000021AB0033080021AC000800AF01B00120
:1003A000B70103102008B7000A30B7020318AF0ADC
:1003B0000318D4290A30B7073708B000B101B201D9
:1003C000B80103102108B8000A30B8020318B10AB6
:1003D0000318E4290A30B8073808B200B301B401A1
:1003E000B90103102208B9000A30B9020318B30A90
:1003F0000318F4290A30B9073908B400B601B50169
:10040000BA0103102308BA000A30BA020318B60A68
:100410000318042A0A30BA073A08B50008003D1844
:10042000302ABD183B2A3D19442ABD194E2A3D1ACF
:10043000592ABD1A622A3D1B6C2ABD1B772A03115B
:1004400005108510051585150512851205178513EC
:10045000061206302002031D2F2A05113D14080044
:1004600005159A22051103302002031D3A2A3D107A
:10047000BD148514080000302002031D432ABD105E
:100480003D1585107F220800851685110630210252
:10049000031D4D2A85123D11BD15080085169A22AF
:1004A000851203302102031D582ABD113D16051681
:1004B000080000302102031D612A3D12BD160512FD
:1004C0007F2208000614051306302202031D6B2A42
:1004D0000610BD123D17080006149A2206100330BC
:1004E0002202031D762A3D13BD1785170800003030
:1004F0002202031D7E2ABD1385137F2208000030CF
:10050000200203199122A0000514003021020319D2
:100510009422A10085150030220203199722A2001F
:1005200005172108220708002008220708002008D4
:1005300021070800F9307330F30B9C2A08000317D9
:100540008316880189010313831685010E30860006
:1005500087018801890103138312850186018701C0
:10056000880189010800031383160F128F120F17D9
:100570000F140800031383168112811101148114D2
:1005800001150313831203138312FE3081000B1134
:10059000080003138312101410169016031383120D
:1005A00003138312EE308E0085308F000C1008008C
:1005B000031383128B170B178B160B110313831660
:0A05C0000C14031383120C10080042
:04400E00C430FF3F7C
:00000001FF
