:060000000A128A11142906
:10000800F000030EF1000B1910200C185B20710E84
:100018008300F00E700E090003138312FE30810076
:100028000B11880124182828A4182C2824193028F2
:10003800A4193428241A3828A41A3C28241B402838
:1000480027088700881444282808870008144728A8
:100058002908870088154A282A08870008154D2886
:100068002B088700881650282C0887000816532864
:100078002D088700881756282E0887000817592842
:100088000130A40608000330A40608000630A406C0
:1000980008000C30A40608001830A4060800303008
:1000A800A40608006030A4060800A4010800031391
:1000B8008312EE308E0085308F000C10A003A10350
:0400C800A203080087
:100200008A010A140F3982073F3406345B344F34B5
:1002100066346D347D3407347F34673477347C340E
:1002200039345E34793471349622AA22B122C02244
:100230000A30A000C500C600C700A3001430A1000A
:100240001E30A200CF220313831286182D21CB214A
:100250000622B821431C4529492986182D29C30A9D
:10026000080006193129C20A15304202031D3A2935
:100270000A30C200080086193B29C2030930420235
:10028000031D44291430C2000800C31851294D2908
:100290002529C31855295929252943199F295D293D
:1002A00025294319A729772925294319A7298B2906
:1002B00025294319A729632925290910891009111E
:1002C000AD01AE0125294508C200091489100911A4
:1002D0000619312186193B214208C500BA00CB21FD
:1002E00035080021AD0036080021AE00252946085A
:1002F000C2000910891409110619312186193B2100
:100300004208C600BA00CB2135080021AD003608EE
:100310000021AE0025294708C200091089100915DF
:100320000619312186193B214208C700BA00CB21AA
:1003300035080021AD0036080021AE00252909143A
:10034000891409150619A9218619B4212529C30183
:1003500025290619A929C3014508A0004608A100BE
:100360004708A200BD0125298619B429C301252902
:1003700030080021A7002F080021A8003208002122
:10038000A90031080021AA0034080021AB0033087D
:100390000021AC000800AF01B00103102008B70035
:1003A0000A30B7020318AF0A0318D0290A30B7077A
:1003B0003708B000B101B20103102108B8000A30BB
:1003C000B8020318B10A0318DF290A30B807380841
:1003D000B200B301B40103102208B9000A30B90217
:1003E0000318B30A0318EE290A30B9073908B40014
:1003F000B601B50103100A30BA020318B60A031891
:10040000FB290A30BA073A08B50008003D18272A28
:10041000BD18322A3D193B2ABD19452A3D1A502ADA
:10042000BD1A592A3D1B632ABD1B6E2A03110510F4
:1004300085100515851505128512051785130612F9
:1004400006302002031D262A05113D14080005155B
:100450009122051103302002031D312A3D10BD14E5
:100460008514080000302002031D3A2ABD103D15F6
:100470008510762208008516851106302102031D9D
:10048000442A85123D11BD1508008516912285125A
:1004900003302102031D4F2ABD113D160516080029
:1004A00000302102031D582A3D12BD160512762286
:1004B00008000614051306302202031D622A0610E6
:1004C000BD123D17080006149122061003302202C7
:1004D000031D6D2A3D13BD17851708000030220249
:1004E000031D752ABD1385137622080000302002F3
:1004F00003198822A00005140030210203198B2261
:10050000A10085150030220203198E22A2000517D2
:1005100021082207080020082207080020082107D8
:100520000800F9307330F30B932A08000317831681
:10053000880189010313831685010E308600870127
:1005400088018901031383128501860187018801CF
:1005500089010800031383160F128F120F170F144F
:1005600008000313831681128111011481140115EF
:100570000313831203138312FE3081000B11080052
:10058000031383121014101690160313831203130F
:100590008312EE308E0085308F000C10080003139C
:1005A00083128B170B178B160B11031383160C1466
:0805B000031383120C10080074
:04400E00C430FF3F7C
:00000001FF
