:060000000A128A11142906
:10000800F000030EF1000B1910200C185B20710E84
:100018008300F00E700E090003138312FE30810076
:100028000B11880123182828A3182C2823193028F5
:10003800A3193428231A3828A31A3C28231B40283C
:1000480026088700881444282708870008144728AA
:100058002808870088154A282908870008154D2888
:100068002A088700881650282B0887000816532866
:100078002C088700881756282D0887000817592844
:100088000130A30608000330A30608000630A306C3
:1000980008000C30A30608001830A306080030300A
:1000A800A30608006030A3060800A3010800031394
:1000B8008312EE308E0085308F000C10A003A10350
:0400C800A203080087
:100200008A010A140F3982073F3406345B344F34B5
:1002100066346D347D3407347F34673477347C340E
:1002200039345E3479347134FF2113221A222922A1
:100230000A30A0001430A1001E30A200382203139F
:1002400083123E216F21252121292F080021A6009C
:100250002E080021A70031080021A8003008002145
:10026000A90033080021AA0032080021AB000030A9
:100270000021AC0000300021AD000800AE01AF014C
:10028000B40103102008B4000A30B4020318AE0A07
:10029000031844290A30B4073408AF00B001B10193
:1002A000B50103102108B5000A30B5020318B00AE1
:1002B000031854290A30B5073508B100B201B3015B
:1002C000B60103102208B6000A30B6020318B20ABB
:1002D000031864290A30B6073608B3000800391835
:1002E0009029B9189B293919A429B919AE29391AA5
:1002F000B929B91AC229391BCC29B91BD72903112D
:10030000051085100515851505128512051785132D
:10031000061206302002031D8F290511391408002A
:100320000515FA21051103302002031D9A29391001
:10033000B9148514080000302002031DA329B91048
:1003400039158510DF210800851685110630210238
:10035000031DAD2985123911B91508008516FA213A
:10036000851203302102031DB829B911391605166B
:10037000080000302102031DC1293912B9160512E7
:10038000DF2108000614051306302202031DCB29C5
:100390000610B912391708000614FA2106100330A6
:1003A0002202031DD6293913B9178517080000301A
:1003B0002202031DDE29B9138513DF210800003056
:1003C00020020319F121A0000514003021020319B5
:1003D000F421A1008515003022020319F721A200A3
:1003E0000517210822070800200822070800200816
:1003F00021070800F9307330F30BFC2908000317BC
:100400008316880189010313831685010E30860047
:100410008701880189010313831285018601870101
:10042000880189010800031383160F128F120F171A
:100430000F14080003138316811281110114811413
:1004400001150313831203138312FE3081000B1175
:10045000080003138312101410169016031383124E
:1004600003138312EE308E0085308F000C100800CD
:10047000031383128B170B178B160B1103138316A1
:0E0480000C148C14031383120C108C10080043
:04400E00C430FF3F7C
:00000001FF
